{
  "contractName": "Student",
  "abi": [
    {
      "anonymous": false,
      "inputs": [
        {
          "indexed": false,
          "internalType": "string",
          "name": "id",
          "type": "string"
        },
        {
          "indexed": false,
          "internalType": "string",
          "name": "result",
          "type": "string"
        }
      ],
      "name": "ResultCreated",
      "type": "event"
    },
    {
      "anonymous": false,
      "inputs": [
        {
          "indexed": false,
          "internalType": "string",
          "name": "id",
          "type": "string"
        },
        {
          "indexed": false,
          "internalType": "string",
          "name": "name",
          "type": "string"
        },
        {
          "indexed": false,
          "internalType": "string",
          "name": "mothersName",
          "type": "string"
        },
        {
          "indexed": false,
          "internalType": "uint256",
          "name": "dateOfBirth",
          "type": "uint256"
        }
      ],
      "name": "StudentCreated",
      "type": "event"
    },
    {
      "constant": true,
      "inputs": [],
      "name": "count",
      "outputs": [
        {
          "internalType": "uint256",
          "name": "",
          "type": "uint256"
        }
      ],
      "payable": false,
      "stateMutability": "view",
      "type": "function"
    },
    {
      "constant": false,
      "inputs": [
        {
          "internalType": "string",
          "name": "_id",
          "type": "string"
        },
        {
          "internalType": "string",
          "name": "_name",
          "type": "string"
        },
        {
          "internalType": "string",
          "name": "_mothersName",
          "type": "string"
        },
        {
          "internalType": "uint256",
          "name": "_dateOfBirth",
          "type": "uint256"
        }
      ],
      "name": "add_student_info",
      "outputs": [],
      "payable": false,
      "stateMutability": "nonpayable",
      "type": "function"
    },
    {
      "constant": false,
      "inputs": [
        {
          "internalType": "string",
          "name": "_id",
          "type": "string"
        },
        {
          "internalType": "string",
          "name": "_name",
          "type": "string"
        },
        {
          "internalType": "string",
          "name": "_mothersName",
          "type": "string"
        },
        {
          "internalType": "uint256",
          "name": "_dateOfBirth",
          "type": "uint256"
        },
        {
          "internalType": "string",
          "name": "_result",
          "type": "string"
        }
      ],
      "name": "add_student_result",
      "outputs": [],
      "payable": false,
      "stateMutability": "nonpayable",
      "type": "function"
    },
    {
      "constant": true,
      "inputs": [
        {
          "internalType": "string",
          "name": "_id",
          "type": "string"
        }
      ],
      "name": "get_student_info",
      "outputs": [
        {
          "internalType": "string",
          "name": "name",
          "type": "string"
        },
        {
          "internalType": "string",
          "name": "mothersName",
          "type": "string"
        },
        {
          "internalType": "uint256",
          "name": "dateOfBirth",
          "type": "uint256"
        }
      ],
      "payable": false,
      "stateMutability": "view",
      "type": "function"
    },
    {
      "constant": true,
      "inputs": [
        {
          "internalType": "string",
          "name": "_id",
          "type": "string"
        }
      ],
      "name": "get_student_result",
      "outputs": [
        {
          "internalType": "string",
          "name": "name",
          "type": "string"
        },
        {
          "internalType": "string",
          "name": "mothersName",
          "type": "string"
        },
        {
          "internalType": "uint256",
          "name": "dateOfBirth",
          "type": "uint256"
        },
        {
          "internalType": "string",
          "name": "result",
          "type": "string"
        }
      ],
      "payable": false,
      "stateMutability": "view",
      "type": "function"
    }
  ],
  "bytecode": "0x60806040526000805534801561001457600080fd5b50610bce806100246000396000f3fe608060405234801561001057600080fd5b50600436106100575760003560e01c806306661abd1461005c5780637efeb20c1461007a5780639b8417cd1461009c578063b9f3603c146100b1578063e42de9a6146100c4575b600080fd5b6100646100e7565b6040516100719190610abf565b60405180910390f35b61008d610088366004610783565b6100ed565b60405161007193929190610a3b565b6100af6100aa366004610868565b61026e565b005b6100af6100bf3660046107c0565b610376565b6100d76100d2366004610783565b610457565b6040516100719493929190610a6f565b60005481565b606080600060018460405161010291906109b2565b9081526040805160209281900383018120805460026001821615610100026000190190911604601f810185900485028301850190935282825290929091908301828280156101915780601f1061016657610100808354040283529160200191610191565b820191906000526020600020905b81548152906001019060200180831161017457829003601f168201915b505050505092506001846040516101a891906109b2565b90815260408051602092819003830181206001908101805460029281161561010002600019011691909104601f8101859004850283018501909352828252909290919083018282801561023c5780601f106102115761010080835404028352916020019161023c565b820191906000526020600020905b81548152906001019060200180831161021f57829003601f168201915b5050505050915060018460405161025391906109b2565b90815260200160405180910390206002015490509193909250565b8360018660405161027f91906109b2565b908152602001604051809103902060000190805190602001906102a3929190610683565b50826001866040516102b591906109b2565b908152602001604051809103902060010190805190602001906102d9929190610683565b50816001866040516102eb91906109b2565b9081526020016040518091039020600201819055508060018660405161031191906109b2565b90815260200160405180910390206003019080519060200190610335929190610683565b507fc5903f604326d78fbbc473306cf22abe6546dd20392710e8b503e00b6f34556785826040516103679291906109c5565b60405180910390a15050505050565b6000805460019081019091556040518491906103939087906109b2565b908152602001604051809103902060000190805190602001906103b7929190610683565b50816001856040516103c991906109b2565b908152602001604051809103902060010190805190602001906103ed929190610683565b50806001856040516103ff91906109b2565b9081526020016040518091039020600201819055507fac630a2ba73d853d8f14b0af6bad36906cb620c1a7cf5c956baa9eac7eb0f74e8484848460405161044994939291906109ea565b60405180910390a150505050565b6060806000606060018560405161046e91906109b2565b9081526040805160209281900383018120805460026001821615610100026000190190911604601f810185900485028301850190935282825290929091908301828280156104fd5780601f106104d2576101008083540402835291602001916104fd565b820191906000526020600020905b8154815290600101906020018083116104e057829003601f168201915b5050505050935060018560405161051491906109b2565b90815260408051602092819003830181206001908101805460029281161561010002600019011691909104601f810185900485028301850190935282825290929091908301828280156105a85780601f1061057d576101008083540402835291602001916105a8565b820191906000526020600020905b81548152906001019060200180831161058b57829003601f168201915b505050505092506001856040516105bf91906109b2565b90815260200160405180910390206002015491506001856040516105e391906109b2565b9081526040805160209281900383018120600301805460026001821615610100026000190190911604601f810185900485028301850190935282825290929091908301828280156106755780601f1061064a57610100808354040283529160200191610675565b820191906000526020600020905b81548152906001019060200180831161065857829003601f168201915b505050505090509193509193565b828054600181600116156101000203166002900490600052602060002090601f016020900481019282601f106106c457805160ff19168380011785556106f1565b828001600101855582156106f1579182015b828111156106f15782518255916020019190600101906106d6565b506106fd929150610701565b5090565b61071b91905b808211156106fd5760008155600101610707565b90565b600082601f83011261072f57600080fd5b813561074261073d82610af4565b610acd565b9150808252602083016020830185838301111561075e57600080fd5b610769838284610b2e565b50505092915050565b803561077d81610b74565b92915050565b60006020828403121561079557600080fd5b813567ffffffffffffffff8111156107ac57600080fd5b6107b88482850161071e565b949350505050565b600080600080608085870312156107d657600080fd5b843567ffffffffffffffff8111156107ed57600080fd5b6107f98782880161071e565b945050602085013567ffffffffffffffff81111561081657600080fd5b6108228782880161071e565b935050604085013567ffffffffffffffff81111561083f57600080fd5b61084b8782880161071e565b925050606061085c87828801610772565b91505092959194509250565b600080600080600060a0868803121561088057600080fd5b853567ffffffffffffffff81111561089757600080fd5b6108a38882890161071e565b955050602086013567ffffffffffffffff8111156108c057600080fd5b6108cc8882890161071e565b945050604086013567ffffffffffffffff8111156108e957600080fd5b6108f58882890161071e565b935050606061090688828901610772565b925050608086013567ffffffffffffffff81111561092357600080fd5b61092f8882890161071e565b9150509295509295909350565b600061094782610b1c565b6109518185610b20565b9350610961818560208601610b3a565b61096a81610b6a565b9093019392505050565b600061097f82610b1c565b6109898185610b29565b9350610999818560208601610b3a565b9290920192915050565b6109ac8161071b565b82525050565b60006109be8284610974565b9392505050565b604080825281016109d6818561093c565b905081810360208301526107b8818461093c565b608080825281016109fb818761093c565b90508181036020830152610a0f818661093c565b90508181036040830152610a23818561093c565b9050610a3260608301846109a3565b95945050505050565b60608082528101610a4c818661093c565b90508181036020830152610a60818561093c565b90506107b860408301846109a3565b60808082528101610a80818761093c565b90508181036020830152610a94818661093c565b9050610aa360408301856109a3565b8181036060830152610ab5818461093c565b9695505050505050565b6020810161077d82846109a3565b60405181810167ffffffffffffffff81118282101715610aec57600080fd5b604052919050565b600067ffffffffffffffff821115610b0b57600080fd5b506020601f91909101601f19160190565b5190565b90815260200190565b919050565b82818337506000910152565b60005b83811015610b55578181015183820152602001610b3d565b83811115610b64576000848401525b50505050565b601f01601f191690565b610b7d8161071b565b8114610b8857600080fd5b5056fea365627a7a72315820e0f2aa896932b0be8f990f2d7b4f759813c3e972a25cc02c134535ec1612715e6c6578706572696d656e74616cf564736f6c63430005100040",
  "source": "// SPDX-License-Identifier: MIT\npragma solidity >=0.4.22 <0.9.0;\npragma experimental ABIEncoderV2;\n\ncontract Student {\n    uint public count = 0;\n    struct StudentInfo {\n        string name;\n        string mothersName;\n        uint256 dateOfBirth;\n        string result;\n    }\n\n    mapping(string => StudentInfo) AllStudents;\n\n    // Event for Student Data Added\n    event StudentCreated(\n        string id,\n        string name,\n        string mothersName,\n        uint256 dateOfBirth\n    );\n\n    // Event for Student Result Added\n    event ResultCreated(\n        string id,\n        string result\n    );\n\n    // function to add student info\n    // @params: id, name, mothers name, date of birth, prn number and branch\n    // @return: none, emits StudentCreated event\n    function add_student_info(string memory _id, string memory _name, string memory _mothersName, uint256 _dateOfBirth) public {\n        count++;\n        AllStudents[_id].name = _name;\n        AllStudents[_id].mothersName = _mothersName;\n        AllStudents[_id].dateOfBirth = _dateOfBirth;\n        emit StudentCreated(_id, _name, _mothersName, _dateOfBirth);\n    }\n\n    // function to add student info\n    // @params: id, result\n    // @return: none, emits ResultCreated event\n    function add_student_result(string memory _id,  string memory _name, string memory _mothersName, uint256 _dateOfBirth, string memory _result) public {\n        AllStudents[_id].name = _name;\n        AllStudents[_id].mothersName = _mothersName;\n        AllStudents[_id].dateOfBirth = _dateOfBirth;\n        AllStudents[_id].result = _result;\n        emit ResultCreated(_id, _result);\n    }\n\n    // function to fetch student info\n    // @params: id\n    // @return: all student info\n    function get_student_info(string memory _id) public view returns(string memory name, string memory mothersName, uint256 dateOfBirth){\n        name = AllStudents[_id].name;\n        mothersName = AllStudents[_id].mothersName;\n        dateOfBirth = AllStudents[_id].dateOfBirth;\n    }\n\n    // function to fetch student result\n    // @params: id\n    // @return: student result\n    function get_student_result(string memory _id) public view returns(string memory name, string memory mothersName, uint256 dateOfBirth, string memory result){\n        name = AllStudents[_id].name;\n        mothersName = AllStudents[_id].mothersName;\n        dateOfBirth = AllStudents[_id].dateOfBirth;\n        result = AllStudents[_id].result;\n    }\n}",
  "sourcePath": "C:\\Users\\admin\\Desktop\\Projects\\AFinal year\\academic-chain-INITIAL_CODE\\contracts\\Student.sol",
  "compiler": {
    "name": "solc",
    "version": "0.5.16+commit.9c3226ce.Emscripten.clang"
  },
  "schemaVersion": "3.4.3",
  "updatedAt": "2022-03-05T10:09:23.964Z",
  "devdoc": {
    "methods": {}
  },
  "userdoc": {
    "methods": {}
  }
}