{
  "contractName": "Student",
  "abi": [
    {
      "constant": true,
      "inputs": [],
      "name": "count",
      "outputs": [
        {
          "name": "",
          "type": "uint256"
        }
      ],
      "payable": false,
      "stateMutability": "view",
      "type": "function",
      "signature": "0x06661abd"
    },
    {
      "anonymous": false,
      "inputs": [
        {
          "indexed": false,
          "name": "id",
          "type": "string"
        },
        {
          "indexed": false,
          "name": "name",
          "type": "string"
        },
        {
          "indexed": false,
          "name": "mothersName",
          "type": "string"
        },
        {
          "indexed": false,
          "name": "dateOfBirth",
          "type": "uint256"
        }
      ],
      "name": "StudentCreated",
      "type": "event",
      "signature": "0xac630a2ba73d853d8f14b0af6bad36906cb620c1a7cf5c956baa9eac7eb0f74e"
    },
    {
      "anonymous": false,
      "inputs": [
        {
          "indexed": false,
          "name": "id",
          "type": "string"
        },
        {
          "indexed": false,
          "name": "result",
          "type": "string"
        }
      ],
      "name": "ResultCreated",
      "type": "event",
      "signature": "0xc5903f604326d78fbbc473306cf22abe6546dd20392710e8b503e00b6f345567"
    },
    {
      "constant": false,
      "inputs": [
        {
          "name": "_id",
          "type": "string"
        },
        {
          "name": "_name",
          "type": "string"
        },
        {
          "name": "_mothersName",
          "type": "string"
        },
        {
          "name": "_dateOfBirth",
          "type": "uint256"
        }
      ],
      "name": "add_student_info",
      "outputs": [],
      "payable": false,
      "stateMutability": "nonpayable",
      "type": "function",
      "signature": "0xb9f3603c"
    },
    {
      "constant": false,
      "inputs": [
        {
          "name": "_id",
          "type": "string"
        },
        {
          "name": "_name",
          "type": "string"
        },
        {
          "name": "_mothersName",
          "type": "string"
        },
        {
          "name": "_dateOfBirth",
          "type": "uint256"
        },
        {
          "name": "_result",
          "type": "string"
        }
      ],
      "name": "add_student_result",
      "outputs": [],
      "payable": false,
      "stateMutability": "nonpayable",
      "type": "function",
      "signature": "0x9b8417cd"
    },
    {
      "constant": true,
      "inputs": [
        {
          "name": "_id",
          "type": "string"
        }
      ],
      "name": "get_student_info",
      "outputs": [
        {
          "name": "name",
          "type": "string"
        },
        {
          "name": "mothersName",
          "type": "string"
        },
        {
          "name": "dateOfBirth",
          "type": "uint256"
        }
      ],
      "payable": false,
      "stateMutability": "view",
      "type": "function",
      "signature": "0x7efeb20c"
    },
    {
      "constant": true,
      "inputs": [
        {
          "name": "_id",
          "type": "string"
        }
      ],
      "name": "get_student_result",
      "outputs": [
        {
          "name": "name",
          "type": "string"
        },
        {
          "name": "mothersName",
          "type": "string"
        },
        {
          "name": "dateOfBirth",
          "type": "uint256"
        },
        {
          "name": "result",
          "type": "string"
        }
      ],
      "payable": false,
      "stateMutability": "view",
      "type": "function",
      "signature": "0xe42de9a6"
    }
  ],
  "bytecode": "0x60806040526000805534801561001457600080fd5b50610f6a806100246000396000f3fe60806040526004361061006c5763ffffffff7c010000000000000000000000000000000000000000000000000000000060003504166306661abd81146100715780637efeb20c1461009c5780639b8417cd146100cb578063b9f3603c146100ed578063e42de9a61461010d575b600080fd5b34801561007d57600080fd5b5061008661013d565b6040516100939190610e83565b60405180910390f35b3480156100a857600080fd5b506100bc6100b7366004610b8c565b610143565b60405161009393929190610dff565b3480156100d757600080fd5b506100eb6100e6366004610c71565b610391565b005b3480156100f957600080fd5b506100eb610108366004610bc9565b6105a4565b34801561011957600080fd5b5061012d610128366004610b8c565b61074a565b6040516100939493929190610e33565b60005481565b60608060006001846040518082805190602001908083835b6020831061017a5780518252601f19909201916020918201910161015b565b518151600019602094850361010090810a820192831692199390931691909117909252949092019687526040805197889003820188208054601f600260018316159098029095011695909504928301829004820288018201905281875292945092505083018282801561022e5780601f106102035761010080835404028352916020019161022e565b820191906000526020600020905b81548152906001019060200180831161021157829003601f168201915b505050505092506001846040518082805190602001908083835b602083106102675780518252601f199092019160209182019101610248565b518151600019602094850361010090810a8201928316921993909316919091179092529490920196875260408051978890038201882060019081018054601f6002938216159098029095019094160494850182900482028801820190528387529094509192505083018282801561031f5780601f106102f45761010080835404028352916020019161031f565b820191906000526020600020905b81548152906001019060200180831161030257829003601f168201915b505050505091506001846040518082805190602001908083835b602083106103585780518252601f199092019160209182019101610339565b51815160209384036101000a60001901801990921691161790529201948552506040519384900301909220600201549496939550505050565b836001866040518082805190602001908083835b602083106103c45780518252601f1990920191602091820191016103a5565b51815160209384036101000a600019018019909216911617905292019485525060405193849003810190932084516104059591949190910192509050610a8a565b50826001866040518082805190602001908083835b602083106104395780518252601f19909201916020918201910161041a565b6001836020036101000a03801982511681845116808217855250505050505090500191505090815260200160405180910390206001019080519060200190610482929190610a8a565b50816001866040518082805190602001908083835b602083106104b65780518252601f199092019160209182019101610497565b51815160209384036101000a6000190180199092169116179052920194855250604051938490038101842060020194909455505086518392600192899290918291908401908083835b6020831061051e5780518252601f1990920191602091820191016104ff565b51815160209384036101000a60001901801990921691161790529201948552506040519384900381019093208451610563956003909201949190910192509050610a8a565b507fc5903f604326d78fbbc473306cf22abe6546dd20392710e8b503e00b6f3455678582604051610595929190610d89565b60405180910390a15050505050565b60008054600190810190915560405185518592918791819060208401908083835b602083106105e45780518252601f1990920191602091820191016105c5565b51815160209384036101000a600019018019909216911617905292019485525060405193849003810190932084516106259591949190910192509050610a8a565b50816001856040518082805190602001908083835b602083106106595780518252601f19909201916020918201910161063a565b6001836020036101000a038019825116818451168082178552505050505050905001915050908152602001604051809103902060010190805190602001906106a2929190610a8a565b50806001856040518082805190602001908083835b602083106106d65780518252601f1990920191602091820191016106b7565b51815160209384036101000a60001901801990921691161790529201948552506040519384900301832060020193909355507fac630a2ba73d853d8f14b0af6bad36906cb620c1a7cf5c956baa9eac7eb0f74e915061073c908690869086908690610dae565b60405180910390a150505050565b606080600060606001856040518082805190602001908083835b602083106107835780518252601f199092019160209182019101610764565b518151600019602094850361010090810a820192831692199390931691909117909252949092019687526040805197889003820188208054601f60026001831615909802909501169590950492830182900482028801820190528187529294509250508301828280156108375780601f1061080c57610100808354040283529160200191610837565b820191906000526020600020905b81548152906001019060200180831161081a57829003601f168201915b505050505093506001856040518082805190602001908083835b602083106108705780518252601f199092019160209182019101610851565b518151600019602094850361010090810a8201928316921993909316919091179092529490920196875260408051978890038201882060019081018054601f600293821615909802909501909416049485018290048202880182019052838752909450919250508301828280156109285780601f106108fd57610100808354040283529160200191610928565b820191906000526020600020905b81548152906001019060200180831161090b57829003601f168201915b505050505092506001856040518082805190602001908083835b602083106109615780518252601f199092019160209182019101610942565b51815160209384036101000a600019018019909216911617905292019485525060405193849003810184206002015489519096506001948a9450925082918401908083835b602083106109c55780518252601f1990920191602091820191016109a6565b518151600019602094850361010090810a820192831692199390931691909117909252949092019687526040805197889003820188206003018054601f6002600183161590980290950116959095049283018290048202880182019052818752929450925050830182828015610a7c5780601f10610a5157610100808354040283529160200191610a7c565b820191906000526020600020905b815481529060010190602001808311610a5f57829003601f168201915b505050505090509193509193565b828054600181600116156101000203166002900490600052602060002090601f016020900481019282601f10610acb57805160ff1916838001178555610af8565b82800160010185558215610af8579182015b82811115610af8578251825591602001919060010190610add565b50610b04929150610b08565b5090565b610b2291905b80821115610b045760008155600101610b0e565b90565b6000601f82018313610b3657600080fd5b8135610b49610b4482610ebe565b610e97565b91508082526020830160208301858383011115610b6557600080fd5b610b70838284610eea565b50505092915050565b6000610b858235610b22565b9392505050565b600060208284031215610b9e57600080fd5b813567ffffffffffffffff811115610bb557600080fd5b610bc184828501610b25565b949350505050565b60008060008060808587031215610bdf57600080fd5b843567ffffffffffffffff811115610bf657600080fd5b610c0287828801610b25565b945050602085013567ffffffffffffffff811115610c1f57600080fd5b610c2b87828801610b25565b935050604085013567ffffffffffffffff811115610c4857600080fd5b610c5487828801610b25565b9250506060610c6587828801610b79565b91505092959194509250565b600080600080600060a08688031215610c8957600080fd5b853567ffffffffffffffff811115610ca057600080fd5b610cac88828901610b25565b955050602086013567ffffffffffffffff811115610cc957600080fd5b610cd588828901610b25565b945050604086013567ffffffffffffffff811115610cf257600080fd5b610cfe88828901610b25565b9350506060610d0f88828901610b79565b925050608086013567ffffffffffffffff811115610d2c57600080fd5b610d3888828901610b25565b9150509295509295909350565b6000610d5082610ee6565b808452610d64816020860160208601610ef6565b610d6d81610f26565b9093016020019392505050565b610d8381610b22565b82525050565b60408082528101610d9a8185610d45565b90508181036020830152610bc18184610d45565b60808082528101610dbf8187610d45565b90508181036020830152610dd38186610d45565b90508181036040830152610de78185610d45565b9050610df66060830184610d7a565b95945050505050565b60608082528101610e108186610d45565b90508181036020830152610e248185610d45565b9050610bc16040830184610d7a565b60808082528101610e448187610d45565b90508181036020830152610e588186610d45565b9050610e676040830185610d7a565b8181036060830152610e798184610d45565b9695505050505050565b60208101610e918284610d7a565b92915050565b60405181810167ffffffffffffffff81118282101715610eb657600080fd5b604052919050565b600067ffffffffffffffff821115610ed557600080fd5b506020601f91909101601f19160190565b5190565b82818337506000910152565b60005b83811015610f11578181015183820152602001610ef9565b83811115610f20576000848401525b50505050565b601f01601f19169056fea265627a7a72305820a884f3b6ef9974b0d859aa536559a9411a131de1ab80c3344fed484d4240093a6c6578706572696d656e74616cf50037",
  "source": "// SPDX-License-Identifier: MIT\npragma solidity >=0.4.22 <0.9.0;\npragma experimental ABIEncoderV2;\n\ncontract Student {\n    uint public count = 0;\n    struct StudentInfo {\n        string name;\n        string mothersName;\n        uint256 dateOfBirth;\n        string result;\n    }\n\n    mapping(string => StudentInfo) AllStudents;\n\n    // Event for Student Data Added\n    event StudentCreated(\n        string id,\n        string name,\n        string mothersName,\n        uint256 dateOfBirth\n    );\n\n    // Event for Student Result Added\n    event ResultCreated(\n        string id,\n        string result\n    );\n\n    // function to add student info\n    // @params: id, name, mothers name, date of birth, prn number and branch\n    // @return: none, emits StudentCreated event\n    function add_student_info(string memory _id, string memory _name, string memory _mothersName, uint256 _dateOfBirth) public {\n        count++;\n        AllStudents[_id].name = _name;\n        AllStudents[_id].mothersName = _mothersName;\n        AllStudents[_id].dateOfBirth = _dateOfBirth;\n        emit StudentCreated(_id, _name, _mothersName, _dateOfBirth);\n    }\n\n    // function to add student info\n    // @params: id, result\n    // @return: none, emits ResultCreated event\n    function add_student_result(string memory _id,  string memory _name, string memory _mothersName, uint256 _dateOfBirth, string memory _result) public {\n        AllStudents[_id].name = _name;\n        AllStudents[_id].mothersName = _mothersName;\n        AllStudents[_id].dateOfBirth = _dateOfBirth;\n        AllStudents[_id].result = _result;\n        emit ResultCreated(_id, _result);\n    }\n\n    // function to fetch student info\n    // @params: id\n    // @return: all student info\n    function get_student_info(string memory _id) public view returns(string memory name, string memory mothersName, uint256 dateOfBirth){\n        name = AllStudents[_id].name;\n        mothersName = AllStudents[_id].mothersName;\n        dateOfBirth = AllStudents[_id].dateOfBirth;\n    }\n\n    // function to fetch student result\n    // @params: id\n    // @return: student result\n    function get_student_result(string memory _id) public view returns(string memory name, string memory mothersName, uint256 dateOfBirth, string memory result){\n        name = AllStudents[_id].name;\n        mothersName = AllStudents[_id].mothersName;\n        dateOfBirth = AllStudents[_id].dateOfBirth;\n        result = AllStudents[_id].result;\n    }\n}",
  "sourcePath": "/home/pachinko/Documents/github/academic-chain/contracts/Student.sol",
  "compiler": {
    "name": "solc",
    "version": "0.5.0+commit.1d4f565a.Emscripten.clang"
  },
  "schemaVersion": "3.0.1",
  "updatedAt": "2022-04-10T07:34:34.971Z",
  "devdoc": {
    "methods": {}
  },
  "userdoc": {
    "methods": {}
  }
}