{
  "contractName": "Student",
  "abi": [
    {
      "anonymous": false,
      "inputs": [
        {
          "indexed": false,
          "internalType": "string",
          "name": "id",
          "type": "string"
        },
        {
          "indexed": false,
          "internalType": "string",
          "name": "name",
          "type": "string"
        },
        {
          "indexed": false,
          "internalType": "string",
          "name": "mothersName",
          "type": "string"
        },
        {
          "indexed": false,
          "internalType": "uint256",
          "name": "dateOfBirth",
          "type": "uint256"
        },
        {
          "indexed": false,
          "internalType": "string",
          "name": "prnNumber",
          "type": "string"
        },
        {
          "indexed": false,
          "internalType": "string",
          "name": "branch",
          "type": "string"
        }
      ],
      "name": "StudentCreated",
      "type": "event"
    },
    {
      "constant": true,
      "inputs": [],
      "name": "count",
      "outputs": [
        {
          "internalType": "uint256",
          "name": "",
          "type": "uint256"
        }
      ],
      "payable": false,
      "stateMutability": "view",
      "type": "function"
    },
    {
      "constant": false,
      "inputs": [
        {
          "internalType": "string",
          "name": "_id",
          "type": "string"
        },
        {
          "internalType": "string",
          "name": "_name",
          "type": "string"
        },
        {
          "internalType": "string",
          "name": "_mothersName",
          "type": "string"
        },
        {
          "internalType": "uint256",
          "name": "_dateOfBirth",
          "type": "uint256"
        },
        {
          "internalType": "string",
          "name": "_prnNumber",
          "type": "string"
        },
        {
          "internalType": "string",
          "name": "_branch",
          "type": "string"
        }
      ],
      "name": "add_student_info",
      "outputs": [],
      "payable": false,
      "stateMutability": "nonpayable",
      "type": "function"
    },
    {
      "constant": true,
      "inputs": [
        {
          "internalType": "string",
          "name": "_id",
          "type": "string"
        }
      ],
      "name": "get_student_info",
      "outputs": [
        {
          "internalType": "string",
          "name": "name",
          "type": "string"
        },
        {
          "internalType": "string",
          "name": "mothersName",
          "type": "string"
        },
        {
          "internalType": "uint256",
          "name": "dateOfBirth",
          "type": "uint256"
        },
        {
          "internalType": "string",
          "name": "prnNumber",
          "type": "string"
        },
        {
          "internalType": "string",
          "name": "branch",
          "type": "string"
        }
      ],
      "payable": false,
      "stateMutability": "view",
      "type": "function"
    }
  ],
  "bytecode": "0x60806040526000805534801561001457600080fd5b50610980806100246000396000f3fe608060405234801561001057600080fd5b50600436106100415760003560e01c806306661abd146100465780637efeb20c146100645780638b8e2cd714610088575b600080fd5b61004e61009d565b60405161005b9190610871565b60405180910390f35b6100776100723660046105ce565b6100a3565b60405161005b95949392919061080c565b61009b61009636600461060b565b61037b565b005b60005481565b60608060006060806001866040516100bb919061077f565b9081526040805160209281900383018120805460026001821615610100026000190190911604601f8101859004850283018501909352828252909290919083018282801561014a5780601f1061011f5761010080835404028352916020019161014a565b820191906000526020600020905b81548152906001019060200180831161012d57829003601f168201915b50505050509450600186604051610161919061077f565b90815260408051602092819003830181206001908101805460029281161561010002600019011691909104601f810185900485028301850190935282825290929091908301828280156101f55780601f106101ca576101008083540402835291602001916101f5565b820191906000526020600020905b8154815290600101906020018083116101d857829003601f168201915b5050505050935060018660405161020c919061077f565b9081526020016040518091039020600201549250600186604051610230919061077f565b9081526040805160209281900383018120600301805460026001821615610100026000190190911604601f810185900485028301850190935282825290929091908301828280156102c25780601f10610297576101008083540402835291602001916102c2565b820191906000526020600020905b8154815290600101906020018083116102a557829003601f168201915b505050505091506001866040516102d9919061077f565b9081526040805160209281900383018120600401805460026001821615610100026000190190911604601f8101859004850283018501909352828252909290919083018282801561036b5780601f106103405761010080835404028352916020019161036b565b820191906000526020600020905b81548152906001019060200180831161034e57829003601f168201915b5050505050905091939590929450565b60008054600190810190915560405186919061039890899061077f565b908152602001604051809103902060000190805190602001906103bc9291906104ce565b50836001876040516103ce919061077f565b908152602001604051809103902060010190805190602001906103f29291906104ce565b5082600187604051610404919061077f565b9081526020016040518091039020600201819055508160018760405161042a919061077f565b9081526020016040518091039020600301908051906020019061044e9291906104ce565b5080600187604051610460919061077f565b908152602001604051809103902060040190805190602001906104849291906104ce565b507fc1e9c33cffe8628a69be44070ada737bb22e3f24b92e8c9a845b7bc8f9e9eb0f8686868686866040516104be96959493929190610792565b60405180910390a1505050505050565b828054600181600116156101000203166002900490600052602060002090601f016020900481019282601f1061050f57805160ff191683800117855561053c565b8280016001018555821561053c579182015b8281111561053c578251825591602001919060010190610521565b5061054892915061054c565b5090565b61056691905b808211156105485760008155600101610552565b90565b600082601f83011261057a57600080fd5b813561058d610588826108a6565b61087f565b915080825260208301602083018583830111156105a957600080fd5b6105b48382846108e0565b50505092915050565b80356105c881610926565b92915050565b6000602082840312156105e057600080fd5b813567ffffffffffffffff8111156105f757600080fd5b61060384828501610569565b949350505050565b60008060008060008060c0878903121561062457600080fd5b863567ffffffffffffffff81111561063b57600080fd5b61064789828a01610569565b965050602087013567ffffffffffffffff81111561066457600080fd5b61067089828a01610569565b955050604087013567ffffffffffffffff81111561068d57600080fd5b61069989828a01610569565b94505060606106aa89828a016105bd565b935050608087013567ffffffffffffffff8111156106c757600080fd5b6106d389828a01610569565b92505060a087013567ffffffffffffffff8111156106f057600080fd5b6106fc89828a01610569565b9150509295509295509295565b6000610714826108ce565b61071e81856108d2565b935061072e8185602086016108ec565b6107378161091c565b9093019392505050565b600061074c826108ce565b61075681856108db565b93506107668185602086016108ec565b9290920192915050565b61077981610566565b82525050565b600061078b8284610741565b9392505050565b60c080825281016107a38189610709565b905081810360208301526107b78188610709565b905081810360408301526107cb8187610709565b90506107da6060830186610770565b81810360808301526107ec8185610709565b905081810360a08301526108008184610709565b98975050505050505050565b60a0808252810161081d8188610709565b905081810360208301526108318187610709565b90506108406040830186610770565b81810360608301526108528185610709565b905081810360808301526108668184610709565b979650505050505050565b602081016105c88284610770565b60405181810167ffffffffffffffff8111828210171561089e57600080fd5b604052919050565b600067ffffffffffffffff8211156108bd57600080fd5b506020601f91909101601f19160190565b5190565b90815260200190565b919050565b82818337506000910152565b60005b838110156109075781810151838201526020016108ef565b83811115610916576000848401525b50505050565b601f01601f191690565b61092f81610566565b811461093a57600080fd5b5056fea365627a7a72315820b298efc3a7adf06deeffeea7514c8794fe70ba6dacb72d8b0ab8fe7c8549d39d6c6578706572696d656e74616cf564736f6c63430005100040",
  "source": "// SPDX-License-Identifier: MIT\r\npragma solidity >=0.4.22 <0.9.0;\r\npragma experimental ABIEncoderV2;\r\n\r\ncontract Student {\r\n    uint public count = 0;\r\n    struct StudentInfo {\r\n        string name;\r\n        string mothersName;\r\n        uint256 dateOfBirth;\r\n        string prnNumber;\r\n        string branch;\r\n//        string[] result;\r\n    }\r\n\r\n    mapping(string => StudentInfo) AllStudents;\r\n\r\n    event StudentCreated(\r\n        string id,\r\n        string name,\r\n        string mothersName,\r\n        uint256 dateOfBirth,\r\n        string prnNumber,\r\n        string branch\r\n    );\r\n\r\n    // event ResultCreated(\r\n    //     string id,\r\n    //     string result\r\n    // );\r\n\r\n    function add_student_info(string memory _id, string memory _name, string memory _mothersName, uint256 _dateOfBirth, string memory _prnNumber, string memory _branch) public {\r\n        count++;\r\n        AllStudents[_id].name = _name;\r\n        AllStudents[_id].mothersName = _mothersName;\r\n        AllStudents[_id].dateOfBirth = _dateOfBirth;\r\n        AllStudents[_id].prnNumber = _prnNumber;\r\n        AllStudents[_id].branch = _branch;\r\n        emit StudentCreated(_id, _name, _mothersName, _dateOfBirth, _prnNumber, _branch);\r\n    }\r\n\r\n    // function add_student_result(string memory _id, string memory _result) public {\r\n    //     AllStudents[_id].result.push(_result);\r\n    //     emit ResultCreated(_id, _result);\r\n    // }\r\n\r\n    function get_student_info(string memory _id) public view returns(string memory name, string memory mothersName, uint256 dateOfBirth, string memory prnNumber, string memory branch){\r\n        name = AllStudents[_id].name;\r\n        mothersName = AllStudents[_id].mothersName;\r\n        dateOfBirth = AllStudents[_id].dateOfBirth;\r\n        prnNumber = AllStudents[_id].prnNumber;\r\n        branch = AllStudents[_id].branch;\r\n    }\r\n\r\n    // function get_student_result(string memory _id) public view returns(string[] memory result){\r\n    //     result = AllStudents[_id].result;\r\n    // }\r\n}",
  "sourcePath": "C:\\Users\\admin\\Desktop\\College\\Final Year Project New\\New\\academic-chain\\contracts\\Student.sol",
  "compiler": {
    "name": "solc",
    "version": "0.5.16+commit.9c3226ce.Emscripten.clang"
  },
  "schemaVersion": "3.4.2",
  "updatedAt": "2021-10-28T04:42:59.593Z",
  "networkType": "ethereum",
  "devdoc": {
    "methods": {}
  },
  "userdoc": {
    "methods": {}
  }
}