{
  "contractName": "Student",
  "abi": [
    {
      "constant": true,
      "inputs": [],
      "name": "count",
      "outputs": [
        {
          "name": "",
          "type": "uint256"
        }
      ],
      "payable": false,
      "stateMutability": "view",
      "type": "function",
      "signature": "0x06661abd"
    },
    {
      "anonymous": false,
      "inputs": [
        {
          "indexed": false,
          "name": "id",
          "type": "string"
        },
        {
          "indexed": false,
          "name": "name",
          "type": "string"
        },
        {
          "indexed": false,
          "name": "mothersName",
          "type": "string"
        },
        {
          "indexed": false,
          "name": "dateOfBirth",
          "type": "uint256"
        },
        {
          "indexed": false,
          "name": "prnNumber",
          "type": "string"
        },
        {
          "indexed": false,
          "name": "branch",
          "type": "string"
        }
      ],
      "name": "StudentCreated",
      "type": "event",
      "signature": "0xc1e9c33cffe8628a69be44070ada737bb22e3f24b92e8c9a845b7bc8f9e9eb0f"
    },
    {
      "constant": false,
      "inputs": [
        {
          "name": "_id",
          "type": "string"
        },
        {
          "name": "_name",
          "type": "string"
        },
        {
          "name": "_mothersName",
          "type": "string"
        },
        {
          "name": "_dateOfBirth",
          "type": "uint256"
        },
        {
          "name": "_prnNumber",
          "type": "string"
        },
        {
          "name": "_branch",
          "type": "string"
        }
      ],
      "name": "add_student_info",
      "outputs": [],
      "payable": false,
      "stateMutability": "nonpayable",
      "type": "function",
      "signature": "0x8b8e2cd7"
    },
    {
      "constant": true,
      "inputs": [
        {
          "name": "_id",
          "type": "string"
        }
      ],
      "name": "get_student_info",
      "outputs": [
        {
          "name": "name",
          "type": "string"
        },
        {
          "name": "mothersName",
          "type": "string"
        },
        {
          "name": "dateOfBirth",
          "type": "uint256"
        },
        {
          "name": "prnNumber",
          "type": "string"
        },
        {
          "name": "branch",
          "type": "string"
        }
      ],
      "payable": false,
      "stateMutability": "view",
      "type": "function",
      "signature": "0x7efeb20c"
    }
  ],
  "bytecode": "0x60806040526000805534801561001457600080fd5b50610bfb806100246000396000f3fe6080604052600436106100565763ffffffff7c010000000000000000000000000000000000000000000000000000000060003504166306661abd811461005b5780637efeb20c146100865780638b8e2cd7146100b7575b600080fd5b34801561006757600080fd5b506100706100d9565b60405161007d9190610b14565b60405180910390f35b34801561009257600080fd5b506100a66100a13660046108b6565b6100df565b60405161007d959493929190610aaf565b3480156100c357600080fd5b506100d76100d23660046108f3565b610512565b005b60005481565b60608060006060806001866040518082805190602001908083835b602083106101195780518252601f1990920191602091820191016100fa565b518151600019602094850361010090810a820192831692199390931691909117909252949092019687526040805197889003820188208054601f60026001831615909802909501169590950492830182900482028801820190528187529294509250508301828280156101cd5780601f106101a2576101008083540402835291602001916101cd565b820191906000526020600020905b8154815290600101906020018083116101b057829003601f168201915b505050505094506001866040518082805190602001908083835b602083106102065780518252601f1990920191602091820191016101e7565b518151600019602094850361010090810a8201928316921993909316919091179092529490920196875260408051978890038201882060019081018054601f600293821615909802909501909416049485018290048202880182019052838752909450919250508301828280156102be5780601f10610293576101008083540402835291602001916102be565b820191906000526020600020905b8154815290600101906020018083116102a157829003601f168201915b505050505093506001866040518082805190602001908083835b602083106102f75780518252601f1990920191602091820191016102d8565b51815160209384036101000a60001901801990921691161790529201948552506040519384900381018420600201548a519097506001948b9450925082918401908083835b6020831061035b5780518252601f19909201916020918201910161033c565b518151600019602094850361010090810a820192831692199390931691909117909252949092019687526040805197889003820188206003018054601f60026001831615909802909501169590950492830182900482028801820190528187529294509250508301828280156104125780601f106103e757610100808354040283529160200191610412565b820191906000526020600020905b8154815290600101906020018083116103f557829003601f168201915b505050505091506001866040518082805190602001908083835b6020831061044b5780518252601f19909201916020918201910161042c565b518151600019602094850361010090810a820192831692199390931691909117909252949092019687526040805197889003820188206004018054601f60026001831615909802909501169590950492830182900482028801820190528187529294509250508301828280156105025780601f106104d757610100808354040283529160200191610502565b820191906000526020600020905b8154815290600101906020018083116104e557829003601f168201915b5050505050905091939590929450565b60008054600190810190915560405187518792918991819060208401908083835b602083106105525780518252601f199092019160209182019101610533565b51815160209384036101000a6000190180199092169116179052920194855250604051938490038101909320845161059395919491909101925090506107b4565b50836001876040518082805190602001908083835b602083106105c75780518252601f1990920191602091820191016105a8565b6001836020036101000a038019825116818451168082178552505050505050905001915050908152602001604051809103902060010190805190602001906106109291906107b4565b50826001876040518082805190602001908083835b602083106106445780518252601f199092019160209182019101610625565b51815160209384036101000a60001901801990921691161790529201948552506040519384900381018420600201949094555050875184926001928a9290918291908401908083835b602083106106ac5780518252601f19909201916020918201910161068d565b51815160209384036101000a600019018019909216911617905292019485525060405193849003810190932084516106f19560039092019491909101925090506107b4565b50806001876040518082805190602001908083835b602083106107255780518252601f199092019160209182019101610706565b51815160209384036101000a6000190180199092169116179052920194855250604051938490038101909320845161076a9560049092019491909101925090506107b4565b507fc1e9c33cffe8628a69be44070ada737bb22e3f24b92e8c9a845b7bc8f9e9eb0f8686868686866040516107a496959493929190610a35565b60405180910390a1505050505050565b828054600181600116156101000203166002900490600052602060002090601f016020900481019282601f106107f557805160ff1916838001178555610822565b82800160010185558215610822579182015b82811115610822578251825591602001919060010190610807565b5061082e929150610832565b5090565b61084c91905b8082111561082e5760008155600101610838565b90565b6000601f8201831361086057600080fd5b813561087361086e82610b4f565b610b28565b9150808252602083016020830185838301111561088f57600080fd5b61089a838284610b7b565b50505092915050565b60006108af823561084c565b9392505050565b6000602082840312156108c857600080fd5b813567ffffffffffffffff8111156108df57600080fd5b6108eb8482850161084f565b949350505050565b60008060008060008060c0878903121561090c57600080fd5b863567ffffffffffffffff81111561092357600080fd5b61092f89828a0161084f565b965050602087013567ffffffffffffffff81111561094c57600080fd5b61095889828a0161084f565b955050604087013567ffffffffffffffff81111561097557600080fd5b61098189828a0161084f565b945050606061099289828a016108a3565b935050608087013567ffffffffffffffff8111156109af57600080fd5b6109bb89828a0161084f565b92505060a087013567ffffffffffffffff8111156109d857600080fd5b6109e489828a0161084f565b9150509295509295509295565b60006109fc82610b77565b808452610a10816020860160208601610b87565b610a1981610bb7565b9093016020019392505050565b610a2f8161084c565b82525050565b60c08082528101610a4681896109f1565b90508181036020830152610a5a81886109f1565b90508181036040830152610a6e81876109f1565b9050610a7d6060830186610a26565b8181036080830152610a8f81856109f1565b905081810360a0830152610aa381846109f1565b98975050505050505050565b60a08082528101610ac081886109f1565b90508181036020830152610ad481876109f1565b9050610ae36040830186610a26565b8181036060830152610af581856109f1565b90508181036080830152610b0981846109f1565b979650505050505050565b60208101610b228284610a26565b92915050565b60405181810167ffffffffffffffff81118282101715610b4757600080fd5b604052919050565b600067ffffffffffffffff821115610b6657600080fd5b506020601f91909101601f19160190565b5190565b82818337506000910152565b60005b83811015610ba2578181015183820152602001610b8a565b83811115610bb1576000848401525b50505050565b601f01601f19169056fea265627a7a723058209b71be77d2f0fe8422719c7cd8e0682fb5de0d8d1e4da71099797db76e2c78b36c6578706572696d656e74616cf50037",
  "source": "// SPDX-License-Identifier: MIT\npragma solidity >=0.4.22 <0.9.0;\npragma experimental ABIEncoderV2;\n\ncontract Student {\n    uint public count = 0;\n    struct StudentInfo {\n        string name;\n        string mothersName;\n        uint256 dateOfBirth;\n        string prnNumber;\n        string branch;\n//        string[] result;\n    }\n\n    mapping(string => StudentInfo) AllStudents;\n\n    event StudentCreated(\n        string id,\n        string name,\n        string mothersName,\n        uint256 dateOfBirth,\n        string prnNumber,\n        string branch\n    );\n\n    // event ResultCreated(\n    //     string id,\n    //     string result\n    // );\n\n    function add_student_info(string memory _id, string memory _name, string memory _mothersName, uint256 _dateOfBirth, string memory _prnNumber, string memory _branch) public {\n        count++;\n        AllStudents[_id].name = _name;\n        AllStudents[_id].mothersName = _mothersName;\n        AllStudents[_id].dateOfBirth = _dateOfBirth;\n        AllStudents[_id].prnNumber = _prnNumber;\n        AllStudents[_id].branch = _branch;\n        emit StudentCreated(_id, _name, _mothersName, _dateOfBirth, _prnNumber, _branch);\n    }\n\n    // function add_student_result(string memory _id, string memory _result) public {\n    //     AllStudents[_id].result.push(_result);\n    //     emit ResultCreated(_id, _result);\n    // }\n\n    function get_student_info(string memory _id) public view returns(string memory name, string memory mothersName, uint256 dateOfBirth, string memory prnNumber, string memory branch){\n        name = AllStudents[_id].name;\n        mothersName = AllStudents[_id].mothersName;\n        dateOfBirth = AllStudents[_id].dateOfBirth;\n        prnNumber = AllStudents[_id].prnNumber;\n        branch = AllStudents[_id].branch;\n    }\n\n    // function get_student_result(string memory _id) public view returns(string[] memory result){\n    //     result = AllStudents[_id].result;\n    // }\n}",
  "sourcePath": "/home/pachinko/Documents/github/academic-chain/contracts/Student.sol",
  "compiler": {
    "name": "solc",
    "version": "0.5.0+commit.1d4f565a.Emscripten.clang"
  },
  "schemaVersion": "3.0.1",
  "updatedAt": "2021-10-27T10:45:04.368Z",
  "devdoc": {
    "methods": {}
  },
  "userdoc": {
    "methods": {}
  }
}