{
  "contractName": "Student",
  "abi": [
    {
      "constant": true,
      "inputs": [],
      "name": "count",
      "outputs": [
        {
          "name": "",
          "type": "uint256"
        }
      ],
      "payable": false,
      "stateMutability": "view",
      "type": "function",
      "signature": "0x06661abd"
    },
    {
      "anonymous": false,
      "inputs": [
        {
          "indexed": false,
          "name": "id",
          "type": "string"
        },
        {
          "indexed": false,
          "name": "name",
          "type": "string"
        },
        {
          "indexed": false,
          "name": "dateOfBirth",
          "type": "uint256"
        },
        {
          "indexed": false,
          "name": "prnNumber",
          "type": "string"
        },
        {
          "indexed": false,
          "name": "branch",
          "type": "string"
        }
      ],
      "name": "StudentCreated",
      "type": "event",
      "signature": "0x23e408c8ae0c8f5a17ba3b9d66666fc16ab65fc23d349802b4eb9d7ed2cc1ea1"
    },
    {
      "anonymous": false,
      "inputs": [
        {
          "indexed": false,
          "name": "id",
          "type": "string"
        },
        {
          "indexed": false,
          "name": "result",
          "type": "string"
        }
      ],
      "name": "ResultCreated",
      "type": "event",
      "signature": "0xc5903f604326d78fbbc473306cf22abe6546dd20392710e8b503e00b6f345567"
    },
    {
      "constant": false,
      "inputs": [
        {
          "name": "_id",
          "type": "string"
        },
        {
          "name": "_name",
          "type": "string"
        },
        {
          "name": "_dateOfBirth",
          "type": "uint256"
        },
        {
          "name": "_prnNumber",
          "type": "string"
        },
        {
          "name": "_branch",
          "type": "string"
        }
      ],
      "name": "add_student_info",
      "outputs": [],
      "payable": false,
      "stateMutability": "nonpayable",
      "type": "function",
      "signature": "0x6db2167a"
    },
    {
      "constant": false,
      "inputs": [
        {
          "name": "_id",
          "type": "string"
        },
        {
          "name": "_result",
          "type": "string"
        }
      ],
      "name": "add_student_result",
      "outputs": [],
      "payable": false,
      "stateMutability": "nonpayable",
      "type": "function",
      "signature": "0x8b49871d"
    },
    {
      "constant": true,
      "inputs": [
        {
          "name": "_id",
          "type": "string"
        }
      ],
      "name": "get_student_info",
      "outputs": [
        {
          "name": "name",
          "type": "string"
        },
        {
          "name": "dateOfBirth",
          "type": "uint256"
        },
        {
          "name": "prnNumber",
          "type": "string"
        },
        {
          "name": "branch",
          "type": "string"
        }
      ],
      "payable": false,
      "stateMutability": "view",
      "type": "function",
      "signature": "0x7efeb20c"
    },
    {
      "constant": true,
      "inputs": [
        {
          "name": "_id",
          "type": "string"
        }
      ],
      "name": "get_student_result",
      "outputs": [
        {
          "name": "result",
          "type": "string[]"
        }
      ],
      "payable": false,
      "stateMutability": "view",
      "type": "function",
      "signature": "0xe42de9a6"
    }
  ],
  "bytecode": "0x60806040526000805534801561001457600080fd5b50610d99806100246000396000f3fe60806040526004361061006c5763ffffffff7c010000000000000000000000000000000000000000000000000000000060003504166306661abd81146100715780636db2167a1461009c5780637efeb20c146100be5780638b49871d146100ee578063e42de9a61461010e575b600080fd5b34801561007d57600080fd5b5061008661013b565b6040516100939190610cac565b60405180910390f35b3480156100a857600080fd5b506100bc6100b7366004610a42565b610141565b005b3480156100ca57600080fd5b506100de6100d936600461099c565b610361565b6040516100939493929190610c5c565b3480156100fa57600080fd5b506100bc6101093660046109d9565b6106a1565b34801561011a57600080fd5b5061012e61012936600461099c565b610768565b6040516100939190610bc1565b60005481565b60008054600190810190915560405186518692918891819060208401908083835b602083106101815780518252601f199092019160209182019101610162565b51815160209384036101000a600019018019909216911617905292019485525060405193849003810190932084516101c2959194919091019250905061089a565b50826001866040518082805190602001908083835b602083106101f65780518252601f1990920191602091820191016101d7565b51815160209384036101000a6000190180199092169116179052920194855250604051938490038101842060019081019590955589518795948b9450925082918401908083835b6020831061025c5780518252601f19909201916020918201910161023d565b51815160209384036101000a600019018019909216911617905292019485525060405193849003810190932084516102a195600290920194919091019250905061089a565b50806001866040518082805190602001908083835b602083106102d55780518252601f1990920191602091820191016102b6565b51815160209384036101000a6000190180199092169116179052920194855250604051938490038101909320845161031a95600390920194919091019250905061089a565b507f23e408c8ae0c8f5a17ba3b9d66666fc16ab65fc23d349802b4eb9d7ed2cc1ea18585858585604051610352959493929190610bf7565b60405180910390a15050505050565b606060006060806001856040518082805190602001908083835b6020831061039a5780518252601f19909201916020918201910161037b565b518151600019602094850361010090810a820192831692199390931691909117909252949092019687526040805197889003820188208054601f600260018316159098029095011695909504928301829004820288018201905281875292945092505083018282801561044e5780601f106104235761010080835404028352916020019161044e565b820191906000526020600020905b81548152906001019060200180831161043157829003601f168201915b505050505093506001856040518082805190602001908083835b602083106104875780518252601f199092019160209182019101610468565b51815160209384036101000a600019018019909216911617905292019485525060405193849003810184206001908101548a5190985090948a9450925082918401908083835b602083106104ec5780518252601f1990920191602091820191016104cd565b518151600019602094850361010090810a8201928316921993909316919091179092529490920196875260408051978890038201882060029081018054601f6001821615909802909501909416049485018290048202880182019052838752909450919250508301828280156105a35780601f10610578576101008083540402835291602001916105a3565b820191906000526020600020905b81548152906001019060200180831161058657829003601f168201915b505050505091506001856040518082805190602001908083835b602083106105dc5780518252601f1990920191602091820191016105bd565b518151600019602094850361010090810a820192831692199390931691909117909252949092019687526040805197889003820188206003018054601f60026001831615909802909501169590950492830182900482028801820190528187529294509250508301828280156106935780601f1061066857610100808354040283529160200191610693565b820191906000526020600020905b81548152906001019060200180831161067657829003601f168201915b505050505090509193509193565b6001826040518082805190602001908083835b602083106106d35780518252601f1990920191602091820191016106b4565b51815160209384036101000a60001901801990921691161790529201948552506040519384900381019093206004018054600181018083556000928352918590208651929561072995509101925085019061089a565b50507fc5903f604326d78fbbc473306cf22abe6546dd20392710e8b503e00b6f345567828260405161075c929190610bd2565b60405180910390a15050565b60606001826040518082805190602001908083835b6020831061079c5780518252601f19909201916020918201910161077d565b51815160209384036101000a60001901801990921691161790529201948552506040805194859003820185206004018054808402870184019092528186529350915060009084015b8282101561088f5760008481526020908190208301805460408051601f600260001961010060018716150201909416939093049283018590048502810185019091528181529283018282801561087b5780601f106108505761010080835404028352916020019161087b565b820191906000526020600020905b81548152906001019060200180831161085e57829003601f168201915b5050505050815260200190600101906107e4565b505050509050919050565b828054600181600116156101000203166002900490600052602060002090601f016020900481019282601f106108db57805160ff1916838001178555610908565b82800160010185558215610908579182015b828111156109085782518255916020019190600101906108ed565b50610914929150610918565b5090565b61093291905b80821115610914576000815560010161091e565b90565b6000601f8201831361094657600080fd5b813561095961095482610ce7565b610cc0565b9150808252602083016020830185838301111561097557600080fd5b610980838284610d19565b50505092915050565b60006109958235610932565b9392505050565b6000602082840312156109ae57600080fd5b813567ffffffffffffffff8111156109c557600080fd5b6109d184828501610935565b949350505050565b600080604083850312156109ec57600080fd5b823567ffffffffffffffff811115610a0357600080fd5b610a0f85828601610935565b925050602083013567ffffffffffffffff811115610a2c57600080fd5b610a3885828601610935565b9150509250929050565b600080600080600060a08688031215610a5a57600080fd5b853567ffffffffffffffff811115610a7157600080fd5b610a7d88828901610935565b955050602086013567ffffffffffffffff811115610a9a57600080fd5b610aa688828901610935565b9450506040610ab788828901610989565b935050606086013567ffffffffffffffff811115610ad457600080fd5b610ae088828901610935565b925050608086013567ffffffffffffffff811115610afd57600080fd5b610b0988828901610935565b9150509295509295909350565b6000610b2182610d15565b80845260208401935083602082028501610b3a85610d0f565b60005b84811015610b71578383038852610b55838351610b7d565b9250610b6082610d0f565b602098909801979150600101610b3d565b50909695505050505050565b6000610b8882610d15565b808452610b9c816020860160208601610d25565b610ba581610d55565b9093016020019392505050565b610bbb81610932565b82525050565b602080825281016109958184610b16565b60408082528101610be38185610b7d565b905081810360208301526109d18184610b7d565b60a08082528101610c088188610b7d565b90508181036020830152610c1c8187610b7d565b9050610c2b6040830186610bb2565b8181036060830152610c3d8185610b7d565b90508181036080830152610c518184610b7d565b979650505050505050565b60808082528101610c6d8187610b7d565b9050610c7c6020830186610bb2565b8181036040830152610c8e8185610b7d565b90508181036060830152610ca28184610b7d565b9695505050505050565b60208101610cba8284610bb2565b92915050565b60405181810167ffffffffffffffff81118282101715610cdf57600080fd5b604052919050565b600067ffffffffffffffff821115610cfe57600080fd5b506020601f91909101601f19160190565b60200190565b5190565b82818337506000910152565b60005b83811015610d40578181015183820152602001610d28565b83811115610d4f576000848401525b50505050565b601f01601f19169056fea265627a7a723058200c633aa8a3f7b2aafdccb909383772a5f7708aa116d4b0f22e41f0325e7b617f6c6578706572696d656e74616cf50037",
  "source": "// SPDX-License-Identifier: MIT\npragma solidity >=0.4.22 <0.9.0;\npragma experimental ABIEncoderV2;\n\ncontract Student {\n    uint public count = 0;\n    struct StudentInfo {\n        string name;\n        uint256 dateOfBirth;\n        string prnNumber;\n        string branch;\n        string[] result;\n    }\n\n    mapping(string => StudentInfo) AllStudents;\n\n    event StudentCreated(\n        string id,\n        string name,\n        uint256 dateOfBirth,\n        string prnNumber,\n        string branch\n    );\n\n    event ResultCreated(\n        string id,\n        string result\n    );\n\n    function add_student_info(string memory _id, string memory _name, uint256 _dateOfBirth, string memory _prnNumber, string memory _branch) public {\n        count++;\n        AllStudents[_id].name = _name;\n        AllStudents[_id].dateOfBirth = _dateOfBirth;\n        AllStudents[_id].prnNumber = _prnNumber;\n        AllStudents[_id].branch = _branch;\n        emit StudentCreated(_id, _name, _dateOfBirth, _prnNumber, _branch);\n    }\n\n    function add_student_result(string memory _id, string memory _result) public {\n        AllStudents[_id].result.push(_result);\n        emit ResultCreated(_id, _result);\n    }\n\n    function get_student_info(string memory _id) public view returns(string memory name, uint256 dateOfBirth, string memory prnNumber, string memory branch){\n        name = AllStudents[_id].name;\n        dateOfBirth = AllStudents[_id].dateOfBirth;\n        prnNumber = AllStudents[_id].prnNumber;\n        branch = AllStudents[_id].branch;\n    }\n\n    function get_student_result(string memory _id) public view returns(string[] memory result){\n        result = AllStudents[_id].result;\n    }\n}",
  "sourcePath": "/home/pachinko/Documents/github/academic-chain/contracts/Student.sol",
  "compiler": {
    "name": "solc",
    "version": "0.5.0+commit.1d4f565a.Emscripten.clang"
  },
  "schemaVersion": "3.0.1",
  "updatedAt": "2021-07-25T13:15:09.115Z",
  "devdoc": {
    "methods": {}
  },
  "userdoc": {
    "methods": {}
  }
}